:020000040000FA
:100000000C94A4000C94CC000C94CC000C94CC0068
:100010000C94CC000C94CC000C94CC000C94CC0030
:100020000C94CC000C94CC000C94CC000C94CC0020
:100030000C94CC000C94CC000C94CC000C94CC0010
:100040000C94600A0C94CC000C94D00A0C94AA0A6C
:100050000C94CC000C94CC000C94CC000C94CC00F0
:100060000C94020B0C94CC0007634236B79BD8A7C4
:100070001A39685618AEBAAB558C1D3CB7CC5763CD
:10008000BD6DEDFD753EF6177231BF000000803F7B
:1000900008000000BE922449123EABAAAA2ABECD97
:1000A000CCCC4C3E00000080BEABAAAAAA3E000009
:1000B0000000BF000000803F000000000008417801
:1000C000D3BB4387D1133D190E3CC3BD4282AD2B38
:1000D0003E68EC8276BED98FE1A93E4C80EFFFBE30
:1000E00001C4FF7F3F00000000000000000024006A
:1000F00027002A000000000023002600290000003D
:1001000000080002010000030407000000000000D6
:1001100000000102040810204080010204081020A1
:1001200001020408102000000000250028002B0018
:10013000040404040404040402020202020203038D
:1001400003030303210C421011241FBECFEFD8E09C
:10015000DEBFCDBF11E0A0E0B1E0E4E8FBE202C009
:1001600005900D92AA36B107D9F723E0AAE6B1E0CF
:1001700001C01D92AE3FB207E1F710E0C3EAD0E044
:1001800004C02197FE010E948314C23AD107C9F727
:100190000E94EE0C0C94B5150C9400008F929F9267
:1001A000AF92BF92CF92DF92EF92FF92CF932091C6
:1001B000E0033091E10382179307E8F54B01AA248D
:1001C000BB24C82DC52ED62EE72EFF24BC2DA42F70
:1001D0002091E603222361F0829E40011124C92D63
:1001E0002C9D60011124BD2D249FF0011124AF2FFF
:1001F000E091EC03E090E703F090E8033091E9032D
:10020000E31323C09C01220F331F820F931F8E0D17
:100210009F1DE091E903E80FF92FF11DC083E091E4
:10022000EA03E80FF92FF11DB0832091EB03820F51
:10023000911DFC01A083CF91FF90EF90DF90CF90B4
:10024000BF90AF909F908F900895880F991F880F4F
:10025000991F8E0D9F1D472F55276627772722232D
:1002600049F030E0249F7001259FF00C349FF00C82
:1002700011244F2DE80FF92FF11D4083CACF0895A7
:100280000895833081F028F4813099F08230A9F00C
:1002900008958730A9F08830C9F08430B1F4809196
:1002A00080008F7D03C0809180008F7780938000D5
:1002B000089584B58F7784BD089584B58F7DFBCF75
:1002C0008091B0008F778093B00008958091B00046
:1002D0008F7DF9CFCF93DF93282F30E0F901E250E3
:1002E000FF4F8491F901EE5EFE4FD491F901E05D7C
:1002F000FE4FC491CC23A1F081110E944101EC2F4B
:10030000F0E0EE0FFF1FEC50FF4FA591B491EC9180
:10031000ED2381E090E009F480E0DF91CF91089532
:1003200080E090E0FACF1F93CF93DF93282F30E047
:10033000F901E250FF4F8491F901EE5EFE4FD49136
:10034000F901E05DFE4FC491CC23A9F0162F811175
:100350000E944101EC2FF0E0EE0FFF1FEA5DFE4F1F
:10036000A591B4918FB7F894EC91111108C0D09574
:10037000DE23DC938FBFDF91CF911F910895DE2B99
:10038000F8CFCF93DF9390E0FC01EE5EFE4F249117
:10039000805D9E4FFC0184918823C9F090E0880F16
:1003A000991FFC01E651FF4FA591B491FC01EA5D54
:1003B000FE4FC591D49161110DC09FB7F8948C91F7
:1003C000209582238C938881282328839FBFDF91E7
:1003D000CF910895623051F49FB7F8943C91822FE9
:1003E000809583238C93E8812E2BEFCF8FB7F894E1
:1003F000EC912E2B2C938FBFEACF3FB7F8948091CE
:10040000B7029091B802A091B902B091BA0226B594
:10041000A89B05C02F3F19F00196A11DB11D3FBF3C
:10042000BA2FA92F982F8827BC01CD01620F711D0B
:10043000811D911D42E0660F771F881F991F4A9505
:10044000D1F708950F931F93CF93DF93CDB7DEB706
:1004500029970FB6F894DEBF0FBECDBF8091E7039A
:100460009091E803892B09F47CC00E94FD01009162
:10047000ED031091EE032091EF033091F00360172C
:1004800071078207930740F46093ED037093EE03C6
:100490008093EF039093F0030091ED031091EE032E
:1004A0002091EF033091F003601B710B820B930BD3
:1004B0006C32714081059105C0F2F8948091E2039D
:1004C0009091E3039A838983E091E703F091E80335
:1004D000DF011196808189879091DE03E091F1031D
:1004E000F091F2038091F303992309F445C09081C0
:1004F000982B98879081809589238F838F818C8317
:1005000088E08B8358856F8149853B812C81898167
:100510009A81508347FD252F3A952083262F39F065
:10052000441F00C000006083000000C0F2CF38E02C
:100530004D9160830000019761F7F093F203E0931F
:10054000F10349873B832C839A83898378940E94A3
:10055000FD016093ED037093EE038093EF0390939E
:10056000F00329960FB6F894DEBF0FBECDBFDF9122
:10057000CF911F910F9108959081982B988790812A
:10058000809589238F838F818E8388E08D83588522
:100590006F8149853D812E8189819A81508347FDF4
:1005A000252F00C000C0208300C000C000C000C0D4
:1005B00000C060830000262F3A9541F0441F0000E0
:1005C00000C000C000C000C000C0E8CF38E04D91BE
:1005D00000C0608300C0019709F7F093F203E09335
:1005E000F10349873D832E83AFCF8F929F92AF92C5
:1005F000BF92CF92DF92EF92FF924B015C010E947B
:10060000FD016B017C010E94FD016C197D098E09C1
:100610009F09683E734081059105A8F321E0821A85
:100620009108A108B10888EEC80E83E0D81EE11C2D
:10063000F11C81149104A104B10429F7FF90EF90FB
:10064000DF90CF90BF90AF909F908F900895AF9222
:10065000BF92CF92DF92EF92FF920F931F93CF93AF
:10066000DF936C017B018B01040F151FEB015E0111
:10067000AE18BF08C017D10759F06991D601ED91A6
:10068000FC910190F081E02DC6010995892B79F745
:10069000C501DF91CF911F910F91FF90EF90DF90F7
:1006A000CF90BF90AF900895FC01538D448D252FBE
:1006B00030E0842F90E0821B930B541710F0CF96FC
:1006C000089501970895FC01918D828D981761F02E
:1006D000A28DAE0FBF2FB11D5D968C91928D9F5F45
:1006E0009F73928F90E008958FEF9FEF0895FC0124
:1006F000918D828D981731F0828DE80FF11D858DD7
:1007000090E008958FEF9FEF0895FC01918D228D69
:10071000892F90E0805C9F4F821B91098F739927EE
:10072000089581E393E00E94850321E0892B09F479
:1007300020E0822F089580E090E0892B29F00E942C
:10074000910381110C9400000895FC01A48DA80F61
:10075000B92FB11DA35ABF4F2C91848D90E0019603
:100760008F739927848FA689B7892C93A089B18923
:100770008C91837080648C93938D848D981306C0C4
:100780000288F389E02D80818F7D80830895EF9228
:10079000FF920F931F93CF93DF93EC0181E0888F3B
:1007A0009B8D8C8D98131AC0E889F989808185FF0B
:1007B00015C09FB7F894EE89FF896083E889F989AD
:1007C00080818370806480839FBF81E090E0DF91AF
:1007D000CF911F910F91FF90EF900895F62E0B8D02
:1007E00010E00F5F1F4F0F731127E02E8C8D8E11BD
:1007F0000CC00FB607FCFACFE889F989808185FF24
:10080000F5CFCE010E94A503F1CFEB8DEC0FFD2FAC
:10081000F11DE35AFF4FF0829FB7F8940B8FEA89DE
:10082000FB8980818062CFCFCF93DF93EC01888DED
:100830008823B9F0AA89BB89E889F9898C9185FD5B
:1008400003C0808186FD0DC00FB607FCF7CF8C91E9
:1008500085FFF2CF808185FFEDCFCE010E94A503F9
:10086000E9CFDF91CF91089520918B01260F332797
:10087000331F21323105ECF420910703FC0190E095
:1008800080E0243069F082E00895A0918B012191ED
:10089000AC0145595E4FA40FB52FB11D2C930196A5
:1008A000861798F380918B01680F60938B0180E02D
:1008B000089581E008951092070381E08093060374
:1008C0001092E10261E082E10E94930161E083E124
:1008D0000E949301E9EBF0E080818E7F808380812C
:1008E0008D7F808388E48093B80085E48093BC008A
:1008F0000895CF93DF9391E090936A018823B9F034
:10090000C091B800D091BA008091BC008A7B8093DE
:10091000BC0060E082E10E94930160E083E10E94FC
:1009200093010E945B04D093BA00C093B800DF919A
:10093000CF9108958F929F92AF92BF92CF92DF9204
:10094000EF92FF920F931F93CF93DF93D0913003D9
:10095000D13208F0D7C0182FC0912F030E94FD019B
:100960006B017C018091070381116BC082E0809351
:100970000703109306038FEF80930503109204037F
:10098000D0930303AFE0B3E0E3EEF2E080E0D813EE
:1009900091C01092E2028091E202CC0FC82BC0936A
:1009A000E2028091E102813009F088C01092E102F8
:1009B0000E94FD016B017C018091E2028093BB00EB
:1009C0008091090390910A03A0910B03B0910C034D
:1009D000892B8A2B8B2BA1F00E94FD01009109032A
:1009E00010910A0320910B0330910C036C197D09BF
:1009F0008E099F09061717072807390708F442C010
:100A00008091BC0083FDD8CF85EC8093BC000E9410
:100A1000FD016B017C0180910703823009F450C015
:100A2000809105038F3F09F46FC0809105038032E8
:100A300009F46CC080910503803309F469C084E037
:100A400026C08091090390910A03A0910B03B091F5
:100A50000C03892B8A2B8B2B09F484CF0E94FD0178
:100A60008090090390900A03A0900B03B0900C03B0
:100A70006C197D098E099F0986169706A806B90686
:100A800008F070CF809108030E94790485E01092ED
:100A90000E031092300310920D03DF91CF911F913E
:100AA0000F91FF90EF90DF90CF90BF90AF909F900D
:100AB0008F9008959D9191938F5F69CF85EEA5CF1B
:100AC0008091090390910A03A0910B03B0910C034C
:100AD000892B8A2B8B2B09F49ECF0E94FD0100915C
:100AE000090310910A0320910B0330910C036C1938
:100AF0007D098E099F09061717072807390708F08F
:100B00008ACFC0CF81E0C3CF80E0C1CF82E0BFCF2A
:100B100083E0BDCF1F93CF93DF93EA01122FDC0157
:100B200011968D919C91DC01ED91FC910280F381F5
:100B3000E02D0995C817D90729F4812F0E949A043E
:100B400091E0811190E0892FDF91CF911F9108955D
:100B5000CF93DF93EC018B818823A1F0888191E012
:100B600090930D0380932F0310920E031092300385
:100B700081E00E949A0491E0811190E0892FDF9139
:100B8000CF9108951092C0021092BF0210920E03EE
:100B9000109230030E945B048FE391E09093BE02B9
:100BA0008093BD0280E491E09093BC028093BB02ED
:100BB00081E08B83CE010E94A805982F8111CECFB2
:100BC000DDCF0895E091C0028091BF02E81730F4B4
:100BD000F0E0EF53FD4F808190E008958FEF9FEF9D
:100BE00008959091C0028091BF022FEF3FEF9817B8
:100BF00048F4E92FF0E0EF53FD4F208130E09F5F94
:100C00009093C002C90108958091BF029091C002E3
:100C1000891B990B0895CF92DF92EF92FF920F9369
:100C20001F93CF93DF937C01CB018A0120910D03A9
:100C3000222389F0EB016B01C40ED51ECC15DD0516
:100C400069F06991D701ED91FC910190F081E02D5F
:100C5000C7010995F3CF642F0E943404C801DF91C6
:100C6000CF911F910F91FF90EF90DF90CF9008955B
:100C7000CF93DF931F92CDB7DEB7698320910D0329
:100C80002223F9F020913003203258F021E030E0A7
:100C9000FC013383228390E080E00F90DF91CF91BD
:100CA000089580910E03E82FF0E0E15FFC4F9981F9
:100CB00090838F5F80930E038093300381E090E0F8
:100CC000ECCF61E0CE0101960E943404F7CF90E0B2
:100CD00080E00895CF93DF9300D0CDB7DEB7806872
:100CE00089836A838091F4039091F503FC01248148
:100CF00035812230310590F0208131E030930D03B1
:100D000020932F0310920E031092300321E042E053
:100D100050E0BE016F5F7F4F0E948A050F900F90D9
:100D2000DF91CF9108952F923F924F925F926F92F1
:100D30007F928F929F92AF92BF92CF92DF92EF926B
:100D4000FF920F931F93CF93DF93DC011496ED91E5
:100D5000FC911597EF2B09F425C169012A01EC01DB
:100D6000888191E090930D0380932F0310920E03DE
:100D70001092300320E041E050E0CD010E948A054E
:100D8000782E882309F40EC1F12CE12C33243394FE
:100D90008C819D8186010E191F098017910708F427
:100DA0008C0128800E94FD014B015C0180910703AA
:100DB000811173C0602EB0E2B01710F480E2682E8B
:100DC0003092070321E0C601801B910BE816F9065B
:100DD00008F420E020930603EFEFE0930503109260
:100DE00004038FEF860D809303033092E20280911B
:100DF000E202220C282A2092E2028091E102813054
:100E000009F090C01092E1020E94FD014B015C01CB
:100E10008091E2028093BB008091090390910A03C4
:100E2000A0910B03B0910C03892B8A2B8B2BA1F083
:100E30000E94FD012091090330910A0340910B03A8
:100E400050910C03681979098A099B0926173707FD
:100E50004807590708F442C08091BC0083FDD8CFF1
:100E6000F5ECF093BC000E94FD014B015C01809108
:100E70000703813009F45AC080910403861510F4E9
:100E800060900403A3EEB2E0E1ECF2E080E08615AE
:100E900051F19D9191938F5FFACF809109039091C9
:100EA0000A03A0910B03B0910C03892B8A2B8B2B87
:100EB00009F47CCF0E94FD012091090330910A03BF
:100EC00040910B0350910C03681979098A099B0919
:100ED000261737074807590708F068CF809108039D
:100EE0000E947904612C1092C0026092BF026016C9
:100EF000110609F057C042018E0C9F1C5401C50118
:100F0000881999098017910798F589819A81DC01E0
:100F1000ED91FC910284F385E02D0995F501819313
:100F20005F01EDCF85EE8093BC009DCF80910903DA
:100F300090910A03A0910B03B0910C03892B8A2B8B
:100F40008B2B09F494CF0E94FD012091090330916D
:100F50000A0340910B0350910C03681979098A091F
:100F60009B09261737074807590708F080CFB6CFE7
:100F7000E00EF11EEC14FD0408F40ACF872DDF917A
:100F8000CF911F910F91FF90EF90DF90CF90BF9086
:100F9000AF909F908F907F906F905F904F903F9019
:100FA0002F900895712CEACF1F93CF93DF931F9258
:100FB000CDB7DEB7182F80E8898321E030E0AE019D
:100FC0004F5F5F4FBA018091F4039091F5030E9447
:100FD00093066981112349F0606180E00E946A06EE
:100FE0000F90DF91CF911F9108956F7EF6CFCF9331
:100FF000DF9300D0CDB7DEB71A821982806889836B
:1010000022E030E0AE014F5F5F4FBA018091F40300
:101010009091F5030E94930689819A810F900F9019
:10102000DF91CF910895FF920F931F93CF93DF939A
:101030001F92CDB7DEB78091F4039091F50300972E
:1010400011F00E94251586E090E00E9489148C0121
:1010500089E2F80180838EEC93E09283818313828E
:1010600080E290E0958384831093F5030093F4036A
:101070001092C0021092BF0210920E031092300321
:101080000E945B048FE391E09093BE028093BD02C7
:1010900080E491E09093BC028093BB0281E0F80170
:1010A0008383C8010E94A805182F811109C010E090
:1010B000812F0F90DF91CF911F910F91FF90089595
:1010C00082E9898321E030E0AE014F5F5F4FBA01D2
:1010D0008091F4039091F5030E94930689818D34E9
:1010E00021F0843411F0803111F781E08093F60310
:1010F0000091F903602F0E946A060093F9030091A2
:10110000F703F090F8038091F603811102C00E946A
:101110001308602F8FE00E946A060093F703F09295
:10112000F80361E080E00E946A0663E070E080E01E
:1011300090E00E94F50263E080E00E946A068091E0
:10114000F90320E031E0281B31094CE0429FC00147
:10115000439F900D112465E070E00E941A146F5FA8
:101160007F4F072E000C880B990B0E94F502A0CF31
:10117000FC0101900020E9F73197AF01481B590BA2
:10118000BC0181E393E00C9427038F929F92AF926E
:10119000BF920F931F93CF93DF93CDB7DEB7A19785
:1011A0000FB6F894DEBF0FBECDBF19A2423008F4CF
:1011B0004AE08E010F5D1F4F842E912CB12CA12C83
:1011C000A50194010E942E14E62FB901CA01EA304C
:1011D000F4F4E05DD801EE938D01232B242B252B15
:1011E00079F790E080E0109719F0CD010E94B808DF
:1011F000A1960FB6F894DEBF0FBECDBFDF91CF91A1
:101200001F910F91BF90AF909F908F900895E95CD0
:10121000E1CFCF93DF930E94B808EC018CE291E01C
:101220000E94B8088C0F9D1FDF91CF910895CF9336
:10123000DF938FE291E00E940909C4E0D0E0409181
:10124000E2035091E30370E060E08091E703909146
:10125000E8030E94AE15219791F7DF91CF910C948E
:101260002202CF93DF9384E391E00E940909D0E04A
:10127000C0E04091DA035091DB036091DC03709190
:10128000DD03CE010E94CE002196C430D10589F73E
:10129000DF91CF910C9422024F925F926F927F92D6
:1012A0008F929F92AF92BF92CF92DF92EF92FF9276
:1012B0000F931F93CF936B017C01742EAC019B01A4
:1012C0000E94E012882399F087E391E0CF911F916B
:1012D0000F91FF90EF90DF90CF90BF90AF909F90D5
:1012E0008F907F906F905F904F900C94B80846015C
:1012F0005701E894B7F82FEF3FEF4FE75FE7C501DD
:10130000B4010E94E01281110DC02FEF3FEF4FE7B3
:101310005FE7C501B4010E94BF1018161CF48BE3EF
:1013200091E0D4CF2FEF3FEF4FE75FE4C701B60165
:101330000E941E1218161CF48FE391E0C7CF2FEF06
:101340003FEF4FE75FECC701B6010E94BF1087FD7A
:10135000F3CF20E030E0A901C701B6010E94BF1021
:1013600010E000E087FF0AC06DE281E393E00E9495
:10137000C7038C01F7FAF094F7F8F094C0E060E04E
:1013800070E080E09FE37C1641F020E030E040E236
:1013900051E40E94C410CF5FF6CFA70196010E94CE
:1013A00053102B013C010E943D114B015C014AE0AE
:1013B0000E94C5087C01E00EF11ECC23C1F1C501DD
:1013C000B4010E946C119B01AC01C301B2010E94E7
:1013D00052104B015C016EE281E393E00E94C7036F
:1013E000E80EF91EC15018F120E030E040E251E46F
:1013F000C501B4010E9423122B013C010E943D1142
:101400004B01B12CA12C4AE0C501B4010E94C508D2
:10141000E80EF91EC501B4010E946C119B01AC01DC
:10142000C301B2010E9452104B015C01DBCFC70126
:10143000CF911F910F91FF90EF90DF90CF90BF90D1
:10144000AF909F908F907F906F905F904F90089596
:1014500085ED8093BC008091090390910A03A091CF
:101460000B03B0910C030796A11DB11D23E0B695A7
:10147000A795979587952A95D1F72091BC0024FDD3
:1014800003C01092070308954091090350910A0385
:1014900060910B0370910C03452B462B472B69F38E
:1014A0000097A105B10541F02AE22A95F1F700C0A5
:1014B0000197A109B109E1CF809108030C94790447
:1014C0001F920F920FB60F9211242F933F938F9379
:1014D0009F93AF93BF938091B3029091B402A09178
:1014E000B502B091B6023091B20223E0230F2D373E
:1014F00058F50196A11DB11D2093B2028093B3024D
:101500009093B402A093B502B093B6028091B70253
:101510009091B802A091B902B091BA020196A11DB2
:10152000B11D8093B7029093B802A093B902B09313
:10153000BA02BF91AF919F918F913F912F910F90E0
:101540000FBE0F901F90189526E8230F0296A11D3D
:10155000B11DD2CF1F920F920FB60F9211242F936D
:101560003F934F935F936F937F938F939F93AF932B
:10157000BF93EF93FF9381E393E00E94A503FF9154
:10158000EF91BF91AF919F918F917F916F915F91FB
:101590004F913F912F910F900FBE0F901F90189574
:1015A0001F920F920FB60F9211242F938F939F9338
:1015B000EF93FF93E0914103F09142038081E0912A
:1015C0004703F091480382FD1BC0908180914A033C
:1015D0008F5F8F7320914B03821741F0E0914A0394
:1015E000F0E0EF5CFC4F958F80934A03FF91EF9101
:1015F0009F918F912F910F900FBE0F901F90189574
:101600008081F4CF1F920F920FB60F9211242F9367
:101610003F934F935F936F937F938F939F93AF937A
:10162000BF93EF93FF938091B900887F803609F4D0
:101630004AC0F0F5883209F4A7C018F5803109F4E2
:101640009BC0B8F4882309F4F9C0883009F494C029
:10165000FF91EF91BF91AF919F918F917F916F918A
:101660005F914F913F912F910F900FBE0F901F9060
:101670001895883109F488C0803251F780930503AA
:1016800014C0803409F49DC040F48033B9F388332A
:10169000F9F68093050385ECB0C0803509F485C068
:1016A000883509F496C0883499F60E94280AD0CF6C
:1016B000883909F48CC038F5883729F050F4883619
:1016C00011F0803729F683E0809307031092AD0173
:1016D00057C0883809F47BC0803919F0803809F088
:1016E000B7CF8091AD01803208F071C0E091AD01BB
:1016F00081E08E0F8093AD018091BB00F0E0E35755
:10170000FE4F80833DC0803B39F0E0F4803A09F41D
:1017100079C0883A09F09CCF84E080930703109247
:101720008C0110928B01E091BD02F091BE020995EF
:1017300080918B0181110FC081E080938B01109209
:101740006B0109C0803C09F4A6CF883C09F4A3CF03
:10175000883B09F07DCFE0918C0181E08E0F809372
:101760008C01F0E0E559FE4F80818093BB009091A1
:101770008C0180918B0129C08091E2028093BB0093
:1017800085EC8093BC0064CF9091040380910303A7
:10179000981758F5E091040381E08E0F80930403BD
:1017A000F0E0ED51FD4F8081E9CFE091040381E04D
:1017B0008E0F809304038091BB00F0E0ED51FD4F4C
:1017C000808390910403809103039817C8F285E801
:1017D000D8CFE091040381E08E0F809304038091C1
:1017E000BB00F0E0ED51FD4F808380910603811135
:1017F0005CCF81E08093E10284EA8093BC00109288
:10180000070326CF85EC8093BC00109207038091DC
:10181000AD01803230F4E091AD01F0E0E357FE4FCE
:1018200010826091AD0170E0E091BB02F091BC02CA
:101830008DE891E009951092AD010ACF1092050351
:1018400034CF109234031092330388EE93E0A0E07B
:10185000B0E08093350390933603A0933703B093A1
:1018600038032CE031E0309332032093310325EC30
:1018700030E030933E0320933D0324EC30E030937E
:10188000400320933F0320EC30E030934203209349
:10189000410321EC30E0309344032093430322ECD6
:1018A00030E0309346032093450326EC30E030933C
:1018B00048032093470310924A0310924B0310925F
:1018C0004C0310924D031092D1031092D0038093D9
:1018D000D2039093D303A093D403B093D5038EE1A6
:1018E00091E09093CF038093CE031092F503109272
:1018F000F4031092F6031092F9031092F803109279
:10190000F7031092DF031092E6031092ED0310929A
:10191000EE031092EF031092F00381E08093EC034A
:101920008093E9031092EA0392E09093EB03809393
:10193000DE038CE090E09093E3038093E2030E9447
:1019400089149093E8038093E703009709F43DC05E
:101950002CE0FC0111922A95E9F784E090E0909345
:10196000E1038093E00386E090E09093E5038093A9
:10197000E4038091DF03882341F061E086E00E9468
:10198000C10160E086E00E949301E6E3F1E0E491AA
:10199000F0E0EE0FFF1FEA5DFE4F8591949190936A
:1019A000F2038093F103E8E1F1E0E491E093F303C3
:1019B0008FEF9FEFAFEFB0E08093DA039093DB03FC
:1019C000A093DC03B093DD0308951092E30310921B
:1019D000E2031092E1031092E003C5CFCF93DF93AF
:1019E000CDB7DEB768970FB6F894DEBF0FBECDBF98
:1019F000789484B5826084BD84B5816084BD85B5EA
:101A0000826085BD85B5816085BD80916E008160F5
:101A100080936E001092810080918100826080939B
:101A2000810080918100816080938100809180009D
:101A30008160809380008091B10084608093B100C8
:101A40008091B00081608093B00080917A008460C2
:101A500080937A0080917A00826080937A008091EE
:101A60007A00816080937A0080917A008068809308
:101A70007A001092C100E0914103F091420382E0AC
:101A80008083E0913D03F0913E031082E0913F039B
:101A9000F09140038FEC808310924903E09145035D
:101AA000F091460386E08083E0914303F091440384
:101AB000808180618083E0914303F09144038081C1
:101AC00088608083E0914303F091440380818068C3
:101AD0008083E0914303F091440380818F7D808374
:101AE00060E082E00E94C10162E088E00E94C101E2
:101AF00062E089E00E94C10161E086E00E94C101CC
:101B00008091E4039091E50397FD08C061E00E9495
:101B1000C10160E08091E4030E94930181E0809321
:101B2000DF032091E6030091E7031091E8032223ED
:101B300021F12150E9F030E050E040E06FEF7FEF1D
:101B400080E090E00E945014F8014091E20350912F
:101B5000E303CF01801B910B8417950760F440814C
:101B6000429FC001439F900D112490833196EDCF89
:101B700030E020E0E9CF1092E6034091E20350917B
:101B8000E30370E060E08091E7039091E8030E9436
:101B9000AE150E9422020E941308882309F447C24E
:101BA00083E491E00E94090981E00E94D4075EEA83
:101BB000E52E51E0F52E10E000E0B801012E000CFA
:101BC000880B990B0E946E1120E030E04FE753E440
:101BD0000E94C41020E030E040E250E40E949012E5
:101BE00020E030E04FE753E40E9423120E943D11B1
:101BF000D7016D937D010F5F1F4F0115B1E01B07EA
:101C0000E1F680E090E0AFEFB0E089839A83AB83A8
:101C1000BC8380E09FEFA0E0B0E08D839E83AF8324
:101C2000B8878FEF90E0A0E0B0E089879A87AB8714
:101C3000BC878FEF9FEFAFEFB0E08D879E87AF87B8
:101C4000B88BFE0131967F0110E000E01F01D70143
:101C50004D915D916D917D917D01C8010E94CE00F5
:101C60000E94220264EF71E080E090E00E94F502A1
:101C70000F5F1F4F0430110551F7009100011091C3
:101C800001010115110509F0D7C10E9417092FB7ED
:101C9000F8948091B3029091B402A091B502B091F2
:101CA000B6022FBF4091AE025091AF026091B002D8
:101CB0007091B102841B950BA60BB70B893E934024
:101CC000A105B10508F4A6C188E00E946A01892B2C
:101CD00009F03DC180E00E94D40768EE73E080E027
:101CE00090E00E94F5028091F603811102C00E94EB
:101CF000130884E10E94F70786E10E94F7074C0170
:101D000088E10E94F7072C018AE10E94F7077C0115
:101D10008091F90320E031E0281B3109FCE0F29FBB
:101D2000C001F39F900D112465E070E00E941A1429
:101D30006F5F7F4F072E000C880B990B0E94F502F6
:101D400081E00E94D407B12CA12C712C612CC3011D
:101D5000B201680D791D8A1D9B1D970150E040E07E
:101D60002D8B3E8B4F8B588F620F731F841F951FD7
:101D70000E946C116B017C01C501B4010E946C11C1
:101D8000A70196010E94C41020E030E040E853E42F
:101D90000E9423124B015C01C301B2010E946C112D
:101DA000A70196010E94C41020E030E040E853E40F
:101DB0000E942312698B7A8B8B8B9C8B6D897E8919
:101DC0008F89988D0E946C11A70196010E94C41002
:101DD00020E030E040E853E40E9423122B013C0154
:101DE00089829A82AB82BC8289899A89AB89BC89B3
:101DF0008D839E83AF83B88749865A866B867C869F
:101E0000EE24E394F12C9C01AD01C501B4010E94C4
:101E1000BF1087FFE12C8701F701EE0FFF1FEE0FC8
:101E2000FF1FE20DF31DA301920160817181828188
:101E300093810E94BF1087FF02C002E010E0000FF4
:101E4000111F000F111FF101E00FF11F20813181DF
:101E50004281538160E070E08FE793E40E94C410F8
:101E60006B017C01AC019B01C501B4010E942312EE
:101E70006D8B7E8B8F8B988FA701960169897A89EC
:101E80008B899C890E9423124B015C01A70196015A
:101E9000C301B2010E9423126B017C0181E691E033
:101EA0000E94B80842E06D897E898F89988D0E94D2
:101EB0004C0987E691E00E94B80842E0C501B401F0
:101EC0000E944C0987E691E00E94B80842E0C701F1
:101ED000B6010E944C098CE291E00E94B8086D891D
:101EE0007E898F89988D0E94361162557E4FDB0165
:101EF0004C90512C712C612C320155244424C50185
:101F0000B4010E94361162557E4FFB018081582A30
:101F1000C701B6010E94361162557E4FDB018C91DC
:101F2000482AB301A20190E080E00E94CE000E9406
:101F3000220268EE73E080E090E00E94F502409299
:101F4000DA035092DB036092DC037092DD0389E0D8
:101F50000E946A01892B09F04AC08091000190918A
:101F60000101009709F07CC0E1E0F0E0F09301018D
:101F7000E09300012FEF3FEF4FEF50E02093DA03A3
:101F80003093DB034093DC035093DD0392E0E92EB2
:101F9000F12C10E000E04FEF50E060E070E0C8018D
:101FA0000E94CE000F5F1F4F04301105A1F70E9461
:101FB000220264EF71E080E090E00E94F50240911F
:101FC000E2035091E30370E060E08091E7039091B9
:101FD000E8030E94AE150E94220264EF71E080E0E7
:101FE00090E00E94F502EA94EF2809F047C02FB76D
:101FF000F8948091B3029091B402A091B502B0918F
:10200000B6022FBF8093AE029093AF02A093B002AE
:10201000B093B10280E090E0892B09F42ECE0E94AB
:102020009103882309F429CE0E94000026CE80E582
:1020300091E00E940909BBCD82E00E946A010197EC
:1020400031F40130110539F40E94310920CE0130FC
:10205000110509F41ACE0230110509F018CEF4CF9B
:10206000019739F442E050E05093010140930001A0
:102070008DCF109201011092000188CFEE24E394DD
:10208000F12C87CF8091E7039091E8030E942515FA
:102090008091E4039091E50397FD03C060E00C9408
:1020A000C10108955058BB27AA270E946A100C94BA
:1020B000E4110E94D61138F00E94DD1120F039F4AD
:1020C0009F3F19F426F40C94D3110EF4E095E7FB2E
:1020D0000C94CD11E92F0E94F51158F3BA1762073D
:1020E00073078407950720F079F4A6F50C9417126E
:1020F0000EF4E0950B2EBA2FA02D0B01B901900123
:102100000C01CA01A0011124FF27591B99F0593F66
:1021100050F4503E68F11A16F040A22F232F342FAE
:102120004427585FF3CF469537952795A795F040FC
:102130005395C9F77EF41F16BA0B620B730B840B11
:10214000BAF09150A1F0FF0FBB1F661F771F881FC9
:10215000C2F70EC0BA0F621F731F841F48F4879521
:1021600077956795B795F7959E3F08F0B0CF939513
:10217000880F08F09927EE0F9795879508950E948C
:10218000A91108F481E008950E94D8100C94E4117C
:102190000E94DD1158F00E94D61140F029F45F3FF3
:1021A00029F00C94CD1151110C9418120C94D311E8
:1021B0000E94F51168F39923B1F3552391F3951B10
:1021C000550BBB27AA2762177307840738F09F5F58
:1021D0005F4F220F331F441FAA1FA9F335D00E2EC5
:1021E0003AF0E0E832D091505040E695001CCAF732
:1021F0002BD0FE2F29D0660F771F881FBB1F2617F5
:1022000037074807AB07B0E809F0BB0B802DBF01CB
:10221000FF2793585F4F3AF09E3F510578F00C949A
:10222000CD110C9418125F3FE4F3983ED4F38695D9
:1022300077956795B795F7959F5FC9F7880F911DBB
:102240009695879597F90895E1E0660F771F881FA7
:10225000BB1F621773078407BA0720F0621B730B5A
:10226000840BBA0BEE1F88F7E09508950E943D118C
:102270006894B1110C94181208950E94FD1188F011
:102280009F5798F0B92F9927B751B0F0E1F0660F3A
:10229000771F881F991F1AF0BA95C9F714C0B1307B
:1022A00091F00E941712B1E008950C941712672F55
:1022B000782F8827B85F39F0B93FCCF386957795AA
:1022C0006795B395D9F73EF4909580957095619593
:1022D0007F4F8F4F9F4F0895E89409C097FB3EF4BE
:1022E00090958095709561957F4F8F4F9F4F992363
:1022F000A9F0F92F96E9BB279395F69587957795E1
:102300006795B795F111F8CFFAF4BB0F11F460FFA0
:102310001BC06F5F7F4F8F4F9F4F16C0882311F0F8
:1023200096E911C0772321F09EE8872F762F05C00C
:10233000662371F096E8862F70E060E02AF09A95A7
:10234000660F771F881FDAF7880F9695879597F99C
:102350000895990F0008550FAA0BE0E8FEEF161636
:102360001706E807F907C0F012161306E407F50789
:1023700098F0621B730B840B950B39F40A2661F0FD
:10238000232B242B252B21F408950A2609F4A140A0
:10239000A6958FEF811D811D089597F99F6780E8AD
:1023A00070E060E008959FEF80EC089500240A94A7
:1023B0001616170618060906089500240A94121620
:1023C0001306140605060895092E0394000C11F453
:1023D000882352F0BB0F40F4BF2B11F460FF04C000
:1023E0006F5F7F4F8F4F9F4F089557FD9058440F59
:1023F000551F59F05F3F71F04795880F97FB991F64
:1024000061F09F3F79F08795089512161306140620
:10241000551FF2CF4695F1DF08C0161617061806AD
:10242000991FF1CF86957105610508940895E89488
:10243000BB2766277727CB0197F908950E94A9113A
:1024400008F48FEF08950E9436120C94E4110E9454
:10245000D61138F00E94DD1120F0952311F00C9474
:10246000CD110C94D31111240C9418120E94F51163
:1024700070F3959FC1F3950F50E0551F629FF001D7
:10248000729FBB27F00DB11D639FAA27F00DB11DF0
:10249000AA1F649F6627B00DA11D661F829F222779
:1024A000B00DA11D621F739FB00DA11D621F839F00
:1024B000A00D611D221F749F3327A00D611D231FD6
:1024C000849F600D211D822F762F6A2F11249F5724
:1024D00050409AF0F1F088234AF0EE0FFF1FBB1F27
:1024E000661F771F881F91505040A9F79E3F5105E6
:1024F00080F00C94CD110C9418125F3FE4F3983ED9
:10250000D4F3869577956795B795F795E7959F5F8F
:10251000C1F7FE2B880F911D9695879597F9089521
:10252000FA01EE0FFF1F309621053105A1F161156B
:10253000710561F48038BFE39B0749F168949038D6
:10254000810561F08038BFEF9B0741F099234AF580
:10255000FF3FE1053105210519F1E8940894E7955D
:10256000D901AA2329F4AB2FBE2FF85FD0F310C0F6
:10257000FF5F70F4A695E0F7F73950F019F0FF3AD5
:1025800038F49F779F930DD00F9007FC90580895D3
:1025900046F00C94D31160E070E080E89FE308956A
:1025A0004FE79F775F934F933F932F930E94901332
:1025B0002F913F914F915F910E9423120C94ED1245
:1025C0000E94A911880B990B089529F416F00C9418
:1025D000CD110C9417120C94D3110E94FD11A8F385
:1025E0009638A0F707F80F92E8942BE33AEA48EB05
:1025F0005FE70E9439120F920F920F924DB75EB7AC
:102600000F920E94D813E8E6F0E00E941F134F914A
:102610005F91EF91FF91E595EE1FFF1F49F0FE5787
:10262000E0684427EE0F441FFA95E1F74195550BFA
:102630000E9452130F9007FE0C9446130895DF93E7
:10264000CF931F930F93FF92EF92DF927B018C0148
:10265000689406C0DA2EEF010E943612FE01E8945B
:10266000A5912591359145915591A6F3EF010E94D1
:102670006A10FE019701A801DA9469F7DF90EF90E4
:10268000FF900F911F91CF91DF9108959B01AC01B5
:1026900060E070E080E89FE30C94C4100C94CD11CE
:1026A0000C940C140E94FD11D8F39923C9F3940FD4
:1026B000511DA3F39150504094F059F0882332F00B
:1026C000660F771F881F91505040C1F79E3F5105FC
:1026D0002CF7880F911D9695879597F908955F3F80
:1026E000ACF0983E9CF0BB27869577956795B7959B
:1026F00008F4B1609395C1F7BB0F58F711F460FF70
:10270000E8CF6F5F7F4F8F4F9F4FE3CF0C9418122E
:1027100016F00C940C140C94D31168940C94CD11F5
:102720000E94FD11A8F39923C1F3AEF3DF93CF9379
:102730001F930F93FF92C92FDD2788232AF021973B
:10274000660F771F881FDAF720E030E040E85FEB84
:102750009FE3883920F0803E38F021968F770E94E1
:102760005310E0E9F0E004C00E945310EDEBF0E0FC
:102770000E941F138B01BE01EC01FB2E6F577109E4
:102780007595771F880B990B0E946E1128E132E72F
:1027900041E35FE30E943612AF2D9801AE01FF9036
:1027A0000F911F91CF91DF910E946A100C94E41158
:1027B000FA01DC01AA0FBB1F9B01AC01BF5728F433
:1027C000222733274427507820C0B75190F4AB2FED
:1027D0000024469537952795011CA395D2F3002038
:1027E00071F0220F331F441FB395DAF30ED00C940F
:1027F000521061307105A0E88A07B94630F49B0198
:10280000AC016627772788279078309621F02083BF
:1028100031834283538308959F3F31F0915020F4D8
:10282000879577956795B795880F911D96958795AC
:1028300097F9089597FB072E16F4009407D077FDBB
:1028400009D00E946F1407FC05D03EF49095819545
:102850009F4F0895709561957F4F0895A1E21A2EBC
:10286000AA1BBB1BFD010DC0AA1FBB1FEE1FFF1F34
:10287000A217B307E407F50720F0A21BB30BE40B84
:10288000F50B661F771F881F991F1A9469F76095CB
:102890007095809590959B01AC01BD01CF01089585
:1028A000052E97FB1EF400940E94671457FD07D075
:1028B0000E942E1407FC03D04EF40C94671450951C
:1028C0004095309521953F4F4F4F5F4F089590951C
:1028D0008095709561957F4F8F4F9F4F0895AA1BEC
:1028E000BB1B51E107C0AA1FBB1FA617B70710F0FB
:1028F000A61BB70B881F991F5A95A9F7809590952D
:10290000BC01CD010895EE0FFF1F0590F491E02D5D
:1029100009940F931F93CF93DF938230910510F4A6
:1029200082E090E0E091FC03F091FD0330E020E0D4
:10293000B0E0A0E0309799F42115310509F44AC0C0
:10294000281B390B24303105D8F58A819B8161150C
:10295000710589F1FB0193838283FE0111C04081DF
:1029600051810281138148175907E0F04817590730
:1029700099F4109761F012960C93129713961C938A
:102980003296CF01DF91CF911F910F91089500935F
:10299000FC031093FD03F4CF2115310551F04217CC
:1029A000530738F0A901DB019A01BD01DF01F801ED
:1029B000C1CFEF01F9CF9093FD038093FC03CDCFFE
:1029C000FE01E20FF31F8193919322503109398365
:1029D0002883D7CF2091FA033091FB03232B41F4B6
:1029E00020910401309105013093FB032093FA03F9
:1029F00020910201309103012115310541F42DB7D9
:102A00003EB74091060150910701241B350BE09120
:102A1000FA03F091FB03E217F307A0F42E1B3F0B20
:102A20002817390778F0AC014E5F5F4F2417350740
:102A300048F04E0F5F1F5093FB034093FA038193BE
:102A400091939FCFF0E0E0E09CCFCF93DF9300978E
:102A5000E9F0FC01329713821282A091FC03B0913D
:102A6000FD03ED0130E020E01097A1F420813181D9
:102A7000820F931F2091FA033091FB032817390727
:102A800009F061C0F093FB03E093FA03DF91CF916B
:102A90000895EA01CE17DF07E8F54A815B819E01C0
:102AA00041155105B1F7E901FB83EA834991599139
:102AB000C40FD51FEC17FD0761F480819181029648
:102AC000840F951FE90199838883828193819B8379
:102AD0008A83F0E0E0E012968D919C911397009725
:102AE000B9F52D913C911197CD010296820F931F5C
:102AF0002091FA033091FB032817390739F63097F4
:102B000051F51092FD031092FC03B093FB03A093C8
:102B1000FA03BCCFD383C28340815181840F951FB8
:102B2000C817D90761F44E5F5F4F88819981480FBC
:102B3000591F518340838A819B819383828321150E
:102B4000310509F0B0CFF093FD03E093FC039ECF75
:102B5000FD01DC01C0CF13821282D7CFDC0101C09E
:102B60006D9341505040E0F7089510E0C3EAD0E083
:102B700004C0FE010E9483142196C43AD107C9F70C
:102B8000F894FFCF01000000FE0380000000000069
:102B9000C70327035403140485036303770300006A
:102BA000000038060B066706E1050406F105E2059C
:102BB0000D0A00444F574E005550006E616E00697B
:102BC0006E66006F766600466F756E642073656E84
:102BD000736F720053656E736F72206E6F74206630
:0E2BE0006F756E640041667465723A200000E5
:107E0000112484B714BE81FFF0D085E080938100F7
:107E100082E08093C00088E18093C10086E0809377
:107E2000C20080E18093C4008EE0C9D0259A86E02C
:107E300020E33CEF91E0309385002093840096BBD3
:107E4000B09BFECF1D9AA8958150A9F7CC24DD24C4
:107E500088248394B5E0AB2EA1E19A2EF3E0BF2EE7
:107E6000A2D0813461F49FD0082FAFD0023811F036
:107E7000013811F484E001C083E08DD089C08234E0
:107E800011F484E103C0853419F485E0A6D080C0E4
:107E9000853579F488D0E82EFF2485D0082F10E0AE
:107EA000102F00270E291F29000F111F8ED06801E7
:107EB0006FC0863521F484E090D080E0DECF843638
:107EC00009F040C070D06FD0082F6DD080E0C81688
:107ED00080E7D80618F4F601B7BEE895C0E0D1E017
:107EE00062D089930C17E1F7F0E0CF16F0E7DF06D8
:107EF00018F0F601B7BEE89568D007B600FCFDCFD4
:107F0000A601A0E0B1E02C9130E011968C91119780
:107F100090E0982F8827822B932B1296FA010C0160
:107F200087BEE89511244E5F5F4FF1E0A038BF0790
:107F300051F7F601A7BEE89507B600FCFDCF97BE46
:107F4000E89526C08437B1F42ED02DD0F82E2BD052
:107F50003CD0F601EF2C8F010F5F1F4F84911BD097
:107F6000EA94F801C1F70894C11CD11CFA94CF0C13
:107F7000D11C0EC0853739F428D08EE10CD085E9AC
:107F80000AD08FE07ACF813511F488E018D01DD067
:107F900080E101D065CF982F8091C00085FFFCCF94
:107FA0009093C60008958091C00087FFFCCF809118
:107FB000C00084FD01C0A8958091C6000895E0E648
:107FC000F0E098E1908380830895EDDF803219F02E
:107FD00088E0F5DFFFCF84E1DECF1F93182FE3DFCA
:107FE0001150E9F7F2DF1F91089580E0E8DFEE27F6
:047FF000FF270994CA
:027FFE00040479
:00000001FF
